:020000040000FA
:040000007AEF12F091
:10201600016E01C083FF1200809A8098809680949A
:102026001200016E01500F0B300F1200E803010081
:10203600E803F4011400016E01380F0B0F0B300F8B
:102046001200030ECA12CA840C0EBD120C0EBA126E
:10205600120000F000F000F000F000F000F000F0D8
:1020660000F012008282828682882CEC10F0829820
:102076002CEC10F012008282828682982CEC10F0F2
:1020860082882CEC10F01200F19E0E0EC16E000E2E
:10209600926E000E956E000E836E12003F000600D3
:1020A6005B004F0066006D007D0007007F006F003B
:1020B600FF0E056EFF0E066EFF0E076E7F0E086E94
:1020C60005C001F006C002F007C003F008C004F026
:1020D600120001500302F3CF05F0F4CF06F00150D1
:1020E6000402F350062602500302F350062605C0EA
:1020F60001F006C002F01200480E016EE80E026EF4
:10210600010E036E000E046E0FC005F010C006F03F
:10211600076A086A16EC15F00104CB6E1200066E0B
:10212600848206500BEC10F08494000E026E030EAF
:10213600016ED3EC10F08492000E026E030E016E57
:10214600D3EC10F084821200066E848206500BECEB
:1021560010F08484000E026E030E016ED3EC10F0B4
:102166008492000E026E030E016ED3EC10F0848290
:1021760012000150021003100410D8B408D0000E4B
:10218600011A000E021A000E031A800E041A01C06C
:1021960001F002C002F003C003F004C004F0120014
:1021A600000E046E000E036E0DD0000E056E00F0DC
:1021B60000F000F000F000F0052AC70E0564F7D71E
:1021C600034A042A0150035C02500458D8B0120096
:1021D600ECD780C005F081C006F082C007F083C04E
:1021E60008F001C005F002C006F003C007F004C005
:1021F60008F0089E05C001F006C002F007C003F013
:1022060008C004F01200000E3C1A000E3D1A000E23
:102216003E1A800E3F1A38C028F039C029F03AC05D
:102226002AF03BC02BF03CC02CF03DC02DF03EC048
:102236002EF03FC02FF061EC1BF028C038F029C00B
:1022460039F02AC03AF02BC03BF01200036E8282AE
:102256008296000E046E04500708016E03C002F059
:10226600012A02D0D8900232012EFCD7010E0216A6
:10227600023A82500218EF0B0218826E82862CEC0C
:1022860010F08296042A070E0464E5D782882CECA7
:1022960010F082862CEC10F082961200000E066E6C
:1022A600000E056E03500410D8B41CD0010E076E44
:1022B60004D0D89003360436072A04AEFAD7D8904D
:1022C600053606360350015C04500258D8A005D0E6
:1022D6000350015E0450025A0580D890043203323E
:1022E600072EEDD705C001F006C002F01200849259
:1022F6008494000E026E140E016ED3EC10F08482EC
:10230600380E92EC10F0000E026E050E016ED3EC44
:1023160010F0380E92EC10F0000E026E010E016EF7
:10232600D3EC10F0380E92EC10F0080E92EC10F090
:102336000F0E92EC10F0010E92EC10F0380E92ECAB
:1023460010F0800E92EC10F01200000E066E020ED7
:10235600056E0150051811E102500618D8A40DD0DB
:1023660005C003F0010E046E032A02D0D89004368D
:10237600032EFCD7045080120DD005C003F0010EC9
:10238600046E032A02D0D8900436032EFCD70450DC
:10239600FF0A8016054A062A06BEDBD7065005E167
:1023A600060E055CD8B01200D4D71200036E8282E6
:1023B600000E046E829694888288000E056E8286D0
:1023C6002CEC10F005500708016E82A803D0026AB3
:1023D600022A01D0026A012A02D0D8900236012EC2
:1023E600FCD7025004128296052A070E0564E7D729
:1023F60094980350D8B402D0829801D082882CECED
:1024060010F082862CEC10F0829604501200000E1A
:10241600146E10AE06D00F6C101ED8B0102A010E26
:10242600146E12AE04D0116C121ED8B0122A1150BE
:102436001210D8B418D0010E136E04D0D8901136ED
:102446001236132A12AEFAD711500F5C12501058DA
:10245600D8A004D011500F5E1250105AD8901232E4
:102466001132132EF1D71450D8B404D00F6C101EAD
:10247600D8B0102A0FC00FF010C010F012000A6E6C
:1024860024EC10F0010ECB24016E026A000E02222B
:102496000AC003F0046A6CEC10F001C00BF002C035
:1024A6000CF00BC001F00CC002F0000E046E190E09
:1024B600036E51EC11F001C00BF002C00CF0FF0EE0
:1024C6000B16030E0C160BC008F00CC009F0D890C2
:1024D60009320832D890093208320850BE6E0BC055
:1024E60008F0030E08160838F00BBD121200A20EF3
:1024F600F66E200EF76E000EF86E01EEDCF010EEB2
:1025060014F00900F5CFEEFFE550E150FAE1320E86
:10251600F66E200EF76E000EF86E00EEF1F010EE7D
:102526000AF00900F5CFEEFFE550E150FAE102EEC0
:1025360000F0600EEE6AE806FDE101EEBCF0200E4A
:10254600EE6AE806FDE100EE80F0480EEE6AE80667
:10255600FDE17F6A000EF86E0001E4EF15F0000E53
:102566000C6E0AAE06D0096C0A1ED8B00A2A010EF5
:102576000C6E08AE06D0076C081ED8B0082A010EED
:102586000C1A000E0E6E000E0D6E09500A10D8B40D
:102596001CD0010E0B6E04D0D89009360A360B2AD1
:1025A6000AAEFAD7D8900D360E360950075C0A5097
:1025B6000858D8A005D00950075E0A50085A0D8061
:1025C600D8900A3209320B2EEDD70C50D8B404D06D
:1025D6000D6C0E1ED8B00E2A0DC007F00EC008F006
:1025E6001200000E0B6E36D00B500724096E000E3B
:1025F60008200A6E09C0F6FF0AC0F7FFF86A050E42
:10260600F76403D00800F55005D0F6CFE9FFF7CF01
:10261600EAFFEF500A0AD8A404D0C00E92EC10F0DC
:1026260018D00B500724096E000E08200A6E09C048
:10263600F6FF0AC0F7FFF86A050EF76403D0080034
:10264600F55005D0F6CFE9FFF7CFEAFFEF50A7EC3C
:1026560010F00B2A0B500724096E000E08200A6E94
:1026660009C0F6FF0AC0F7FFF86A050EF76403D043
:102676000800F55005D0F6CFE9FFF7CFEAFFEF5097
:102686000009D8B41200B0D7CA948282829482908C
:102696008490829A000E936E010E92EC10F0910EC9
:1026A600076E7F0E086EF4EC12F0000E026E0A0E34
:1026B600016ED3EC10F0C00E92EC10F0DB0E076E3C
:1026C6007E0E086EF4EC12F0900E92EC10F0090EED
:1026D600076E7F0E086EF4EC12F0D00E92EC10F03E
:1026E600840E076E7F0E086EF4EC12F03F0E936EAA
:1026F60081B681A804D081AA02D081B0F9D781B66B
:1027060005D0CA948282E7EC1CF0120081B805D08D
:10271600CA9482829EEC13F0120081BA05D0CA9444
:102726008282C6EC26F0120081B01200CA94828220
:10273600EBEC18F012003F0E936E010E92EC10F0C7
:10274600FA0E076E7E0E086EF4EC12F047EC10F0EF
:102756000FEC10F0200E926E3F0E936E900E92ECE0
:1027660010F0E40E076E7F0E086EF4EC12F09A0E6F
:1027760092EC10F0EB0E076E7F0E086EF4EC12F082
:10278600D00E92EC10F0EB0E076E7E0E086EF4EC97
:1027960012F081B081A202D081B6FBD781B00ED0F3
:1027A600000E206E010E1F6EA0C021F0A1C022F007
:1027B60074EC24F00001A04BA12BCCD781B20FD032
:1027C600000E206E020E1F6EA0C021F0A1C022F0E6
:1027D60074EC24F00001A007D8A0A107BBD781B6EE
:1027E600B9D70FEC10F012000001DB35DC357E6E38
:1027F6007E50D8A409D0000ED96F000EDA6F000EF5
:10280600DB6F000EDC6F1200D9C0DDF0DAC0DEF03F
:10281600DBC0DFF0DCC0E0F0200E05D0D890E0335E
:10282600DF33DE33DD33E82EF9D7DD517D6EDB8F06
:10283600FF0ED917FF0EDA17FF0EDB17000EDC1797
:10284600960E7E5E7EAE0DD07E50800A970FD8A083
:10285600D2D7D890DC33DB33DA33D9337E3EF9D79F
:102866000DD01F0E7E6407D0C6D7D890D937DA3779
:10287600DB37DC377E067E50D8A4F7D77D50D8B438
:1028860008D0DC1FDB1FDA1FD96D000EDA23DB232D
:10289600DC23D9C0D9F0DAC0DAF0DBC0DBF0DCC06B
:1028A600DCF01200000E206E000E1F6E000E1E6E73
:1028B600000E1D6E0950075C1F6E0A500858206EE8
:1028C60020AE0DD01FC011F020C012F0111E121E36
:1028D600114A122A11C01DF012C01EF004D01FC0EA
:1028E6001DF020C01EF01DC001F01EC002F00BC07E
:1028F60003F00CC004F06CEC10F001C015F002C03F
:1029060016F01DC001F01EC002F00DC003F00EC08F
:1029160004F06CEC10F00150192602501A220950EE
:102926000008016E0A50D8A0E82A0008026E0FC0FF
:1029360003F010C004F06CEC10F001C017F002C0F8
:1029460018F019501524116E1A501620126E1750D1
:102956001124136E18501220146E13C007F014C001
:1029660008F01200CA948282829482908490829A9D
:10297600010E92EC10F0BF0E076E7F0E086EF4EC9F
:1029860012F0C00E92EC10F0340E076E7F0E086E39
:10299600F4EC12F0900E92EC10F0420E076E7F0EE1
:1029A600086EF4EC12F0D00E92EC10F03F0E936E1F
:1029B60081A602D081B8FCD781B611D0CA94828292
:1029C600B90E076E7E0E086EF4EC12F0030E026E60
:1029D600E80E016ED3EC10F047EC13F0120081B84C
:1029E6001200860E076E7E0E086EF4EC12F0030ED1
:1029F600026EE80E016ED3EC10F0080E92EC10F0A9
:102A0600000E936E000E816E000E956E000E836EA4
:102A1600000E966E000E846E5E0E026E000E016E45
:102A2600D3EC10F01200000E0A6E08AE0AD0081E93
:102A3600071E061E056C000E062207220822010E3E
:102A46000A6E04AE0AD0041E031E021E016C000E9E
:102A5600022203220422010E0A1A000E0B6E000E39
:102A66000C6E000E0D6E000E0E6E05500610071051
:102A76000810D8B42AD0010E096E06D0D8900536B3
:102A8600063607360836092A08AEF8D7D8900B3628
:102A96000C360D360E360550015C065002580750AE
:102AA600035808500458D8A009D00550015E0650B6
:102AB600025A0750035A0850045A0B80D89008321D
:102AC600073206320532092EE1D70A50D8B408D0AB
:102AD6000E1E0D1E0C1E0B6C000E0C220D220E225D
:102AE6000BC001F00CC002F00DC003F00EC004F0E4
:102AF6001200000E4014486E000E4114496E800EFE
:102B060042144A6E7F0E43144B6E485049104A10C9
:102B16004B10D8A408D0000E406E000E416E000E79
:102B2600426E000E436E000E4414486E000E4514AD
:102B3600496E800E46144A6E7F0E47144B6E4850FF
:102B460049104A104B10D8A408D0000E446E000E4F
:102B5600456E000E466E000E476E43AE09D0406CC1
:102B6600411ED8B0412A421ED8B0422A800E435692
:102B760047AE09D0446C451ED8B0452A461ED8B08B
:102B8600462A800E4756000E401A000E411A000EC5
:102B9600421A800E431A000E441A000E451A000E01
:102BA600461A800E471A4450405C455041584650DC
:102BB600425847504358D8B002D0D8901200D88017
:102BC6001200000E956E000E966E010E946E060EA5
:102BD600C16E82827AEC11F0010E92EC10F0800E3A
:102BE60092EC10F0420E076E7E0E086EF4EC12F0B8
:102BF600C00E92EC10F0260E076E7F0E086EF4ECF7
:102C060012F05AEC16F0900E92EC10F0BA0E076E17
:102C1600000E086EF4EC12F0000E0001AB6F000E11
:102C2600AA6F5AEC16F0D00E92EC10F0B00E076EAA
:102C3600000E086EF4EC12F0010E026EF40E016E38
:102C4600D3EC10F00001AA4BAB2BABBFEAD7AB51CC
:102C560004E10A0EAA5DD8A0E4D7010E92EC10F0AA
:102C6600750E076E7E0E086EF4EC12F0000E026E04
:102C76000A0E016ED3EC10F0900E92EC10F0CA0E14
:102C8600076E7F0E086EF4EC12F0D00E92EC10F088
:102C9600DF0E076E7E0E086EF4EC12F00B0E026E5F
:102CA600B80E016ED3EC10F0B5EC14F0FDD735EC90
:102CB60010F0D00E29EC11F0000E29EC11F035ECD5
:102CC60010F0D10E29EC11F0010ED9EC11F07F0BAA
:102CD600066E3A0E0001B56F06501EEC10F00001AC
:102CE600B66F065014EC10F00001B76F000EB86F07
:102CF600010ED9EC11F07F0B066E3A0E0001B26F91
:102D060006501EEC10F00001B36F065014EC10F0E4
:102D16000001B46F010ED9EC11F03F0B066E0650A0
:102D26001EEC10F00001B06F065014EC10F000011C
:102D3600B16F010ED9EC11F0010ED9EC11F03F0B79
:102D4600066E06501EEC10F00001BA6F065014EC29
:102D560010F00001BB6F010ED9EC11F01F0B066ECF
:102D66002F0E0001BC6F06501EEC10F00001BD6F67
:102D7600065014EC10F00001BE6F000ED9EC11F0F5
:102D8600066E2F0E0001BF6F06501EEC10F00001FC
:102D9600C06F065014EC10F00001C16F000EC26F38
:102DA6003EEC10F01200000E096E000E086E000ECA
:102DB6000B6E81CF0AF05FD0000E0C6EF70E0C245E
:102DC600F66EF76A7D0EF7220800F550FF0A8112AB
:102DD60083B60CD0000E026E140E016ED3EC10F00A
:102DE60083B604D083A6FED70C282CD083B40DD08E
:102DF600000E026E140E016ED3EC10F083B405D0F3
:102E060083A4FED70C50040F1DD083B20DD0000E44
:102E1600026E140E016ED3EC10F083B205D083A2BD
:102E2600FED70C50070F0ED083B00ED0000E026EE8
:102E3600140E016ED3EC10F083B006D083A0FED73B
:102E46000C500A0F0B6E0DD0F70E0C24F66EF76AB7
:102E56007D0EF7220800F55081160C2A020E0C642E
:102E6600ADD7000E026E050E016ED3EC10F0050E06
:102E76000826000E09220650085C07500958D8A0FB
:102E860004D006500710D8A403D00B50D8B494D75A
:102E96000B50D8B40B680B0E0B18D8A402D0000E3A
:102EA6000B6E0AC081FF0B501200096E0950D8A4A0
:102EB60004AE1AD001C005F002C006F003C007F048
:102EC60004C008F0051E061E071E081E052A000E71
:102ED60006220722082205C00BF006C00CF007C028
:102EE6000DF008C00EF008D001C00BF002C00CF0C7
:102EF60003C00DF004C00EF00150021003100410C0
:102F0600D8A409D0000E016E000E026E000E036EEC
:102F1600000E046E1200960E0A6E06D00A2AD8908B
:102F26000E320D320C320B32000E0B14056E000EF3
:102F36000C14066E000E0D14076EFE0E0E14086EAF
:102F46000550061007100810D8B40DD0E7D70A2A86
:102F5600010E0B26000E0C220D220E22D8900E32E8
:102F66000D320C320B32000E0B14056E000E0C14D3
:102F7600066E000E0D14076EFF0E0E14086E055039
:102F8600061007100810D8B407D0E1D70A06D89063
:102F96000B360C360D360E360DBE03D0020E0A6009
:102FA600F5D70AA00D9ED8900A320AC005F0066A27
:102FB600076A086A05C008F0076A066A056A0550C6
:102FC6000B1206500C1207500D1208500E12095023
:102FD600D8A404AE01D00E8E0BC001F00CC002F0D6
:102FE6000DC003F00EC004F0120028C036F029C050
:102FF60037F02AC038F02BC039F02DBE56D02D50F0
:1030060004E1800E2C5CD8A050D036C00FF037C03B
:1030160010F038C011F039C012F0000E136E000E19
:10302600146E000E156E7F0E166E88EC1EF00FC025
:1030360036F010C037F011C038F012C039F0810EEA
:103046002C26FF0E2D222DBE88D02D5004E1800E99
:103056002C5CD8A082D036C00FF037C010F038C034
:1030660011F039C012F0000E136E000E146E000E31
:10307600156E7F0E166E88EC1EF00FC036F010C06F
:1030860037F011C038F012C039F0810E2C26FF0E31
:103096002D222DBE62D02D5004E1800E2C5CD8A0CE
:1030A6005CD0000E2D6E7F0E57D02DAE56D0820E00
:1030B6002C5CFF0E2D58D8B050D036C00FF037C05C
:1030C60010F038C011F039C012F0000E136E000E69
:1030D600146E800E156E0C0E166E88EC1EF00FC068
:1030E60036F010C037F011C038F012C039F0660E55
:1030F6002C26000E2D222DAE30D0820E2C5CFF0E1B
:103106002D58D8B02AD036C00FF037C010F038C0CE
:1031160011F039C012F0000E136E000E146E800E00
:10312600156E0C0E166E88EC1EF00FC036F010C031
:1031360037F011C038F012C039F0660E2C26000E9A
:103146002D222DAE0AD0820E2C5CFF0E2D58D8B043
:1031560004D0FF0E2D6E820E2C6E7F0E2C242E6E4A
:10316600000E2D202F6E306A316A170ED8902E363B
:103176002F3630363136E82EF9D72EC032F02FC032
:1031860033F030C034F031C035F032C00FF033C008
:1031960010F034C011F035C012F036C013F037C04D
:1031A60014F038C015F039C016F088EC1EF00FC0C8
:1031B60028F010C029F011C02AF012C02BF028C048
:1031C60028F029C029F02AC02AF02BC02BF01200C3
:1031D600010E92EC10F02BD1030E026EE80E016E7A
:1031E600D3EC10F0000E0001C56F000EC46F000E88
:1031F600876F000E866FC6C007F0C7C008F0A0C074
:1032060009F0A1C00AF0F3C00BF0F4C00CF092C0B4
:103216000DF093C00EF08AC00FF08BC010F055EC85
:1032260014F007C086F008C087F0800E00018625DE
:10323600016E000E8721026E000E046E640E036E90
:103246006CEC10F001C007F002C008F0010E0A6E27
:10325600000E096EB2EC12F007C0C4F008C0C5F04B
:103266000001C505C411D8A403D0000EC56FC469FA
:10327600C5AF04D0C46DC51FD8B0C52BC4C015F0EA
:10328600C5C016F0220E176E000E186E44EC22F022
:10329600800E92EC10F0F20E076E7F0E086EF4ECC4
:1032A60012F0860E92EC10F0220E076E000E086EDB
:1032B600F4EC12F0A0C015F0A1C016F0320E176E95
:1032C600000E186E44EC22F0C00E92EC10F0DD0EEB
:1032D600076E7F0E086EF4EC12F0C70E92EC10F03B
:1032E600320E076E000E086EF4EC12F0C50E92EC6C
:1032F60010F0F90E076E7F0E086EF4EC12F0C6C0E1
:1033060015F0C7C016F0420E176E000E186E44EC8C
:1033160022F0900E92EC10F09D0E076E7E0E086E57
:10332600F4EC12F09B0E92EC10F0420E076E000EBB
:10333600086EF4EC12F09E0E92EC10F0F90E076E89
:103346007F0E086EF4EC12F03F0E936ED00E92ECE8
:1033560010F0D40E076E7F0E086EF4EC12F081B2F8
:1033660010D0DA0E92EC10F0FB0E076E7F0E086E90
:10337600F4EC12F0030E026EE80E016ED3EC10F0C0
:10338600120047EC10F00FEC10F00001C651A01926
:1033960017E1C751A119D8A413D084908290829ABC
:1033A6008294CA948292070E026ED00E016ED3ECFE
:1033B60010F08282000E936E818A819C819E37D0A6
:1033C600A051C65DC751800A216EA151800A2158BD
:1033D600D8B016D0A007D8A0A1078490829A829070
:1033E600030E106EE80E0F6E7FEC10F00001C45154
:1033F60042EC12F08284000E936E819A818CDED7A5
:10340600C651A05DA151800A216EC751800A21587C
:10341600D8B00DD0A04BA12BCA9482828290829400
:103426008480828A000E936E819A819C818E81A20D
:103436001200D2D64350800B506E43504324576E31
:1034460042BE57805750D8B40DD05728D8A408D0BC
:10345600000E406E000E416E000E426E000E436E70
:10346600428E06D0000E406E000E416E000E426E79
:10347600000E436E4750800B501A47504724586E33
:1034860046BE58805850D8B40DD05828D8A408D075
:10349600000E446E000E456E000E466E000E476E20
:1034A600468E06D0000E446E000E456E000E466E29
:1034B600000E476E4450451046104710D8A417D04A
:1034C600000E406E000E416E000E426E000E436E00
:1034D600800E42127F0E43125050431240C040F0FD
:1034E60041C041F042C042F043C043F01200575081
:1034F600D8A409D0000E406E000E416E000E426E3A
:10350600000E436E1200585057C048F0496A485E94
:10351600000E495A7F0E4824516E000E4920526E05
:1035260040C04CF041C04DF042C04EF043C04FF099
:10353600000E406E000E416E000E426E000E436E8F
:10354600000E536E000E546E000E556E000E566E33
:10355600000E586E28D05850D8B411D0D8904C369A
:103566004D364E364F36D890403641364236433683
:1035760056BE4080D890533654365536563644504B
:103586004C5C45504D5846504E5847504F58D8A061
:1035960009D0568C44504C5E45504D5A46504E5AB2
:1035A60047504F5A582A190E5864D5D74C504D10CB
:1035B6004E104F10D8B411D053800FD0D89040364B
:1035C60041364236433656BE4080D890533654363E
:1035D600553656365106D8A0520642AEEFD7000EE3
:1035E600586E56AE17D0FF0E5314486EFF0E541485
:1035F600496EFF0E55144A6E7F0E56144B6E485098
:1036060049104A104B10D8B403D0010E586E02D0A0
:1036160040B0FBD75850D8B41FD0010E4026000E3C
:1036260041224222432243A017D040C048F041C065
:1036360049F042C04AF043C04BF04B344B324A3259
:103646004932483248C040F049C041F04AC042F0D1
:103656004BC043F0514A522A52BE10D0525003E199
:103666005128D8A00BD0000E526E5168000E406E45
:10367600000E416E000E426E000E436E52BE05D025
:10368600525011E15104D8B00ED0000E526E000E09
:10369600516E000E406E000E416E000E426E000E20
:1036A600436E000E506E51C057F057A002D0428EA6
:1036B60001D0429ED8905730436E0ED72B50800BC8
:1036C600346E2B502B24366E2ABE36803650D8B434
:1036D6000DD03628D8A408D0000E286E000E296E0C
:1036E600000E2A6E000E2B6E2A8E06D0000E286E55
:1036F600000E296E000E2A6E000E2B6E2F50800BC8
:10370600356E34503518D8A4348C2F502F24356E8E
:103716002EBE35803550D8B40DD03528D8A408D063
:10372600000E2C6E000E2D6E000E2E6E000E2F6EED
:103736002E8E06D0000E2C6E000E2D6E000E2E6EF6
:10374600000E2F6E3650355CD8B022D034AC02D085
:10375600800E341A36C037F035C036F037C035F033
:1037660028C037F02CC028F037C02CF029C037F01D
:103776002DC029F037C02DF02AC037F02EC02AF010
:1037860037C02EF02BC037F02FC02BF037C02FF0EC
:10379600000E376E365035C030F0316A305E000E9E
:1037A600315A31BE2CD0315004E11A0E305CD8A00B
:1037B60026D0285029102A102B10D8B402D0010E7A
:1037C60001D0000E376E000E286E000E296E000E18
:1037D6002A6E000E2B6E35C036F015D037A005D0F8
:1037E600D89037300109376E02D0D890373228B0DA
:1037F600378E2B342B322A3229322832362A35504C
:10380600365CD8A0EBD734BC28D03650D8A409D023
:10381600000E286E000E296E000E2A6E000E2B6E0C
:1038260012002C5028262D5029222E502A222F50A5
:103836002B222BA071D037A005D0D89037300109A4
:10384600376E02D0D890373228B0378E2B342B32D1
:103856002A3229322832362A5FD02C50285C2D5045
:1038660029582E502A582B50800A306E2F50800A25
:103876003058D8B025D028502C5C306E29502D58A1
:10388600316E2A502E58326E2B502F58336EFF0E43
:103896003024286EFF0E3120296EFF0E32202A6E4C
:1038A600FF0E33202B6E800E341A376C3750D8A497
:1038B6000FD0010E2826000E29222A222B2208D0FC
:1038C6002C50285E2D50295A2E502A5A2F502B5AEA
:1038D600285029102A102B10D8A41CD03750D8A451
:1038E60019D0000E286E000E296E000E2A6E000EEC
:1038F6002B6E1200D890283629362A362B3637BE3C
:10390600288037A002D0D88001D0D89037363650DC
:10391600D8A436062AAEEED7000E356E37AE0BD0DB
:1039260037C030F07F0E3016D8B403D0010E356E96
:1039360002D028B0FBD73550D8B420D0010E2826A7
:10394600000E29222A222B222BA018D028C030F0C4
:1039560029C031F02AC032F02BC033F03334333271
:1039660032323132303230C028F031C029F032C024
:103976002AF033C02BF03628D8A4362A3628D8B4F5
:1039860003D03650D8A40DD0000E286E000E296E36
:10399600000E2A6E000E2B6E3650D8A402D0000EF2
:1039A600346E36A002D02A8E01D02A9ED8903630A8
:1039B6002B6E34BE2B8E28C028F029C029F02AC0D1
:1039C6002AF02BC02BF01200000E0001A36F000E90
:1039D600A26F3F0E936E010E92EC10F0800E92ECE9
:1039E60010F0A80E076E7E0E086EF4EC12F0C00EF4
:1039F60092EC10F0CA0E076E7E0E086EF4EC12F012
:103A0600900E92EC10F0640E076E7E0E086EF4ECCB
:103A160012F0D00E92EC10F0F80E936E000E00012C
:103A2600AF6F000EC76F000EC66F000EA96F000EB7
:103A3600A86FD890A835D96EA935DA6E400ED9266A
:103A4600020EDA22000EDE6E000EDD6EA84BA92BEA
:103A5600A9BFEFD7A9514CE1100EA85DD8B048D048
:103A6600E8D70F0E956E000E076E000E066ED6ECAA
:103A760016F0300F0001AF6F3A0EAF19D8B41CD054
:103A86002D0EAF19D8B418D0000E076E000E066EB4
:103A9600D6EC16F00001E16FE26BD890A435D96E32
:103AA600A535DA6E400ED926020EDA22E1C0DEFF17
:103AB600E2C0DDFFA44BA52B3A0EAF19D8A406D061
:103AC6002D0EAF6F000EA36F010EA26F3C0EAF61FD
:103AD6000AD03A0EAF19D8B406D02D0EAF19D8B405
:103AE60002D0A64BA72B000E956EAF51A7EC10F097
:103AF6003B0E0001AF65B5D7FF0EA625EB6FFF0E97
:103B0600A721EC6F000EA56F000EA46F89D0EBC045
:103B160001F0ECC002F0000E02BEFF0E036E046E52
:103B2600010E58EC17F001C0E3F002C0E4F003C048
:103B3600E5F004C0E6F0E3C0CCF0E4C0CDF0E5C0AB
:103B4600CEF0E6C0CFF0000E0001C86F000EC96FC0
:103B5600200ECA6F410ECB6FFCEC2AF0C8C0E7F00E
:103B6600C9C0E8F0CAC0E9F0CBC0EAF0E7C013F07C
:103B7600E8C014F0E9C015F0EAC016F0D8900001CC
:103B8600A435D96EA535DA6E400ED926020EDA2294
:103B9600DECF01F0DDCF02F0000E02BEFF0E036E97
:103BA600046E010E58EC17F001C00FF002C010F0C1
:103BB60003C011F004C012F088EC1EF00FC02CF008
:103BC60010C02DF011C02EF012C02FF0C6C001F0AB
:103BD600C7C002F0000E02BEFF0E036E046E010E99
:103BE60058EC17F001C028F002C029F003C02AF0F3
:103BF60004C02BF061EC1BF028C0D9F029C0DAF024
:103C06002AC0DBF02BC0DCF0F7EC13F0D9C0C6F00D
:103C1600DAC0C7F00001EB07D8A0EC07A44BA52B30
:103C2600A651A45DA551800AE16FA751800AE1590A
:103C3600D8A06DD7A205A311D8A404D0C66DC71FFE
:103C4600D8B0C72B3F0E936E010E92EC10F0970E74
:103C5600076E7E0E086EF4EC12F0C60E92EC10F0B3
:103C6600000E0001A56F000EA46F23D0A205A311BC
:103C7600D8A409D02D0EA7EC10F0000E0001A36FFA
:103C8600000EA26F0DD0D890A435D96EA535DA6E88
:103C9600400ED926020EDA22DF50300FA7EC10F0C4
:103CA600000E026E140E016ED3EC10F00001A44B50
:103CB600A52BA651A45DA551800AE16FA751800AE4
:103CC600E159D8A0D3D7A651C60F92EC10F0F80E42
:103CD600076E7F0E086EF4EC12F0900E92EC10F068
:103CE600500E076E7F0E086EF4EC12F081B0FED710
:103CF600FB0E076E7F0E086EF4EC12F0030E026EDA
:103D0600E80E016ED3EC10F012001250800B1B6E01
:103D160012501224216E11BE21802150D8B40DD02C
:103D26002128D8A408D0000E0F6E000E106E000ECB
:103D3600116E000E126E118E08D0000E0F6E000E60
:103D4600106E000E116E000E126E1650800B1B1AAE
:103D560016501624206E15BE20802050D8B40DD0E3
:103D66002028D8A408D0000E136E000E146E000E84
:103D7600156E000E166E158E08D0000E136E000E10
:103D8600146E000E156E000E166E2050D8B403D0B9
:103D96002150D8A409D0000E0F6E000E106E000E32
:103DA600116E000E126E120015500F02F3CF26F0A0
:103DB600F4CF27F026501C6E1D6A1E6A1F6A275014
:103DC600226E236A246A256A14501002F3CF26F065
:103DD600F4CF27F026501C26000E1D221E221F227D
:103DE60027502226000E23222422252213501102B8
:103DF600F3CF26F0F4CF27F026501C26000E1D2206
:103E06001E221F2227502226000E2322242225228C
:103E16001EC01FF01DC01EF01CC01DF01C6A1350F2
:103E26001002F3CF26F0F4CF27F026501C26275099
:103E36001D22000E1E22000E1F2214500F02F3CF69
:103E460026F0F4CF27F026501C2627501D22000E00
:103E56001E22000E1F221EC01FF01DC01EF01CC019
:103E66001DF01C6A13500F02F3CF26F0F4CF27F093
:103E760026501C2627501D22000E1E22000E1F2231
:103E860015501002F3CF26F0F4CF27F02650222645
:103E960027502322000E2422000E25221450110240
:103EA600F3CF26F0F4CF27F02650222627502322E0
:103EB600000E2422000E252215501102F3CF26F003
:103EC600F4CF27F02650176E2750186E196A1A6A13
:103ED60019C01AF018C019F017C018F0176A175051
:103EE600222618502322195024221A5025221CC09B
:103EF60017F01DC018F01EC019F01FC01AF0190ED9
:103F060005D0D8901A32193218321732E82EF9D75E
:103F16001750222618502322195024221A502522DF
:103F26001EC01FF01DC01EF01CC01DF01C6A2050D4
:103F360021C017F0186A1726000E1822820E1724C1
:103F4600266EFF0E1820276E0FD0D8902236233605
:103F5600243625361FBE2280D8901C361D361E36C6
:103F66001F362606D8A0270624AEEFD7000E206EF1
:103F76001FAE17D0FF0E1C14176EFF0E1D14186E01
:103F8600FF0E1E14196E7F0E1F141A6E175018108E
:103F960019101A10D8B403D0010E206E02D022B028
:103FA600FBD72050D8B41FD0010E2226000E2322A4
:103FB6002422252225A017D022C017F023C018F0EE
:103FC60024C019F025C01AF01A341A3219321832E0
:103FD600173217C022F018C023F019C024F01AC0F7
:103FE60025F0264A272A27BE0DD0275003E126288A
:103FF600D8A008D0000E226E000E236E800E246E0E
:104006007F0E20D027BE05D027500EE12604D8B05B
:104016000BD0000E226E000E236E000E246E000ED4
:10402600256E000E1B6E0FD026C021F0FF0E221645
:10403600FF0E23167F0E2416000E251621B0248EA1
:10404600D8902130256E1B50251222C00FF023C0B8
:1040560010F024C011F025C012F012004CC061F01F
:104066004DC062F04EC063F04FC064F061C079F09D
:1040760062C07AF063C07BF064C07CF0000E7914F5
:10408600506E000E7A14516E800E7B14526E7F0EA7
:104096007C14536E800E521833E17F0E5318501065
:1040A6005110D8A42DD04CC013F04DC014F04EC002
:1040B60015F04FC016F04CC00FF04DC010F04EC0BA
:1040C60011F04FC012F088EC1EF00FC028F010C09F
:1040D60029F011C02AF012C02BF04CC02CF04DC0B4
:1040E6002DF04EC02EF04FC02FF061EC1BF028C013
:1040F6004CF029C04DF02AC04EF02BC04FF01200F4
:104106007CBE07D07C507B107A1034E17904D8B09D
:1041160031D0FF0E7914506EFF0E7A14516EFF0ED9
:104126007B14526E7F0E7C14536E505051105210F9
:104136005310D8A409D04CC04CF04DC04DF04EC021
:104146004EF04FC04FF012007CAE14D0000E0001AE
:10415600856F210E846F1F0E016E7E0E026E5BEC64
:1041660010F001C04CF002C04DF003C04EF004C088
:104176004FF01200170E506E79C051F07AC052F00F
:104186007BC053F07CC054F0506601D007D0543445
:104196005432533252325132502EF6D751C071F04A
:1041A60052C072F053C073F054C074F07150721064
:1041B60073107410D8A42AD0000E5D6E000E5E6EC9
:1041C600000E5F6E000E606E0BD0D89079367A3690
:1041D6007B367C36010E5D26000E5E225F22602253
:1041E6007BAEF3D7FF0E5D24506EFF0E5E20516E40
:1041F600FF0E5F20526EFF0E6020536E5050715EB0
:104206005150725A5250735A5350745A810E712635
:10421600FF0E7222FF0E7322FF0E7422FF0E791418
:10422600506EFF0E7A14516E7F0E7B14526E000E86
:104236007C14536E000E5010796E000E51107A6E7B
:10424600800E52107B6E000E53107C6E71A008D04B
:10425600795079267A507A227B507B227C507C22B8
:1042660074347432733272327132795079267A50DC
:104276007A227B507B227C507C22000E596E000EE7
:104286005A6E000E5B6E000E5C6E59C065F05AC029
:1042960066F05BC067F05CC068F0000E756E000EDD
:1042A600766E000E776E010E786E43D075505924E7
:1042B600696E76505A206A6E77505B206B6E785026
:1042C6005C206C6E6950795C6A507A586B507B58EA
:1042D6007C50800A506E6C50800A5058D8A01CD072
:1042E60075506924596E76506A205A6E77506B2045
:1042F6005B6E78506C205C6E6950795E6A507A5AB3
:104306006B507B5A6C507C5A7550652676506622E7
:104316007750672278506822795079267A507A2227
:104326007B507B227C507C22D89078327732763252
:1043360075327550761077107810D8A4B7D77950A3
:104346007A107B107C10D8B452D0000E6D6E000E21
:104356006E6E800E6F6E3F0E706E6DC040F06EC05A
:1043660041F06FC042F070C043F0000E446E000E84
:10437600456E800E466E3F0E476E7CEC15F0D8A05B
:1043860036D0000E6D6E000E6E6E800E6F6E3F0E96
:10439600706E000E406E000E416E800E426E3F0E35
:1043A600436E6DC044F06EC045F06FC046F070C0FD
:1043B60047F07CEC15F0D8B006D0020E6526000E4C
:1043C6006622672213D0010E6514506E000E661425
:1043D600516E000E6714526E000E6814536E5050E4
:1043E600652651506622525067225350682265C096
:1043F60050F066C051F067C052F068C053F05334B5
:104406005332523251325032000E5024796E000E21
:1044160051207A6E000E52207B6E3F0E53207C6E2A
:1044260071C050F072C051F073C052F074C053F0B6
:10443600170ED8905036513652365336E82EF9D7E5
:104446005050792651507A2252507B2253507C226A
:1044560079C061F07AC062F07BC063F07CC064F022
:1044660061C06DF062C06EF063C06FF064C070F042
:104476006DC04CF06EC04DF06FC04EF070C04FF086
:10448600120016BEDFD016BE06D0165046E10A0E42
:10449600155CD8B042D015C00FF016C010F0000E53
:1044A600126E0A0E116E0AEC12F00F50300F17C082
:1044B600D9FF18C0DAFFDF6E20EE01F01750D926BB
:1044C6001850DA22200EDF6E20EE02F01750D926A1
:1044D6001850DA22200EDF6E20EE03F01750D92690
:1044E6001850DA22200EDF6E20EE04F01750D9267F
:1044F6001850DA22200EDF6E20EE05F01750D9266E
:104506001850DA22200EDF6E20EE06F01750D9265C
:104516001850DA22200EDF6E120016BE3AD0165060
:1045260004E10A0E155CD8A034D016BE06D016508B
:1045360030E1640E155CD8B02CD0000E126E640EFD
:10454600116E15C00FF016C010F00AEC12F00FC075
:1045560007F010C008F0000E0A6E0A0E096EB2ECE3
:1045660012F00750300F17C0D9FF18C0DAFFDF6E00
:1045760020EE01F01750D9261850DA2215C00FF098
:1045860016C010F0000E126E0A0E116E0AEC12F032
:1045960085D016BE1200165004E1640E155CD8A034
:1045A600120016BE06D0E80E155C030E1658D8B0DB
:1045B6001200030E126EE80E116E15C00FF016C033
:1045C60010F00AEC12F00FC007F010C008F0000E51
:1045D6000A6E640E096EB2EC12F00750300F17C067
:1045E600D9FF18C0DAFFDF6E20EE01F01750D9268A
:1045F6001850DA22000E126E640E116E15C00FF0FE
:1046060016C010F00AEC12F00FC007F010C008F048
:10461600000E0A6E0A0E096EB2EC12F00750300F49
:10462600DF6E20EE02F01750D9261850DA2215C098
:104636000FF016C010F0000E126E0A0E116E0AEC84
:1046460012F072D016AE120015C019F016C01AF08C
:10465600191E1A1E194A1A2A19C01DF01AC01EF070
:104666001EBE06D01E501DE10A0E1D5CD8B019D024
:1046760017C0D9FF18C0DAFF2D0EDF6E20EE01F04D
:104686001750D9261850DA221DC00FF01EC010F0A0
:10469600000E126E0A0E116E0AEC12F00F50300F59
:1046A60012D71EBE44D01E5004E10A0E1D5CD8A0CF
:1046B6003ED01EBE06D01E503AE1640E1D5CD8B038
:1046C60036D017C0D9FF18C0DAFF2D0EDF6E20EEE8
:1046D60001F01750D9261850DA22000E126E640E19
:1046E600116E1DC00FF01EC010F00AEC12F00FC0C4
:1046F60007F010C008F0000E0A6E0A0E096EB2EC42
:1047060012F00750300FDF6E20EE02F01750D92658
:104716001850DA221DC00FF01EC010F0000E126EE7
:104726000A0E116E0AEC12F00F50300FD4D61EBED0
:1047360061D01E5004E1640E1D5CD8A05BD01EBE85
:1047460006D0E80E1D5C030E1E58D8B053D017C015
:10475600D9FF18C0DAFF2D0EDF6E20EE01F01750DC
:10476600D9261850DA22030E126EE80E116E1DC0FD
:104776000FF01EC010F00AEC12F00FC007F010C0C8
:1047860008F0000E0A6E640E096EB2EC12F00750C5
:10479600300FDF6E20EE02F01750D9261850DA22BD
:1047A600000E126E640E116E1DC00FF01EC010F0CA
:1047B6000AEC12F00FC007F010C008F0000E0A6EE7
:1047C6000A0E096EB2EC12F00750300FDF6E20EEC3
:1047D60003F01750D9261850DA221DC00FF01EC05C
:1047E60010F0000E126E0A0E116E0AEC12F00F5047
:1047F600300F79D6E80E1D1803E1030E1E18D8A453
:10480600120017C0D9FF18C0DAFF2D0EDF6E20EE9A
:1048160001F01750D9261850DA22270E126E100E04
:10482600116E1DC00FF01EC010F00AEC12F00FC082
:1048360007F010C008F0030E0A6EE80E096EB2EC1F
:1048460012F00750300FDF6E20EE02F01750D92617
:104856001850DA22030E126EE80E116E1DC00FF00C
:104866001EC010F00AEC12F00FC007F010C008F0DE
:10487600000E0A6E640E096EB2EC12F00750300F8D
:10488600DF6E20EE03F01750D9261850DA22000EFC
:10489600126E640E116E1DC00FF01EC010F00AECF1
:1048A60012F00FC007F010C008F0000E0A6E0A0ED4
:1048B600096EB2EC12F00750300FDF6E20EE04F0F6
:1048C6001750D9261850DA221DC00FF01EC010F05E
:1048D600000E126E0A0E116E0AEC12F00F50300F17
:1048E6000AD6000E4A6E000E496E47EC10F00FEC29
:1048F60010F01F042010D8A420D1214A222A800EAD
:1049060092EC10F0180E076E7F0E086EF4EC12F0A3
:10491600C60E92EC10F021C015F022C016F0270E3C
:10492600176E000E186E44EC22F0270E076E000E6E
:10493600086EF4EC12F0CB0E92EC10F0F90E076E46
:104946007F0E086EF4EC12F022AE0DD021C023F0DB
:1049560022C024F0231E241E234A242A23C049F001
:1049660024C04AF004D021C049F022C04AF0000E0B
:10497600486E000E476E49C00FF04AC010F0000E98
:10498600126E0A0E116E0AEC12F0D8900F3610361F
:10499600DC0E0F24D96E010E1020DA6EDF50836E06
:1049A600000E026E050E016EA8EC11F0000E4C6EA4
:1049B600000E4B6E02D04B4A4C2AE80E4B5C030E9F
:1049C6004C58D8A0F8D7000E0A6E0A0E096E49C0D8
:1049D60007F04AC008F0B2EC12F007C00FF008C0AA
:1049E60010F0000E126E0A0E116E0AEC12F0D8903C
:1049F6000F361036DC0E0F24D96E010E1020DA6E3B
:104A0600DF50836E000E026E040E016EA8EC11F0EC
:104A1600000E4C6E000E4B6E02D04B4A4C2AE80E2E
:104A26004B5C030E4C58D8A0F8D7000E0A6E640EE5
:104A3600096E49C007F04AC008F0B2EC12F007C090
:104A46000FF008C010F0000E126E0A0E116E0AEC7E
:104A560012F0D8900F361036DC0E0F24D96E010EE8
:104A66001020DA6EDF50836E000E026E030E016EAA
:104A7600A8EC11F0000E4C6E000E4B6E02D04B4AA5
:104A86004C2AE80E4B5C030E4C58D8A0F8D722AE41
:104A960016D0400E836E000E026E020E016EA8EC5A
:104AA60011F0000E4C6E000E4B6E02D04B4A4C2A93
:104AB600E80E4B5C030E4C58D8B033D0F7D7000E37
:104AC6000A6E640E096E49C007F04AC008F0B2ECDF
:104AD60012F007C00FF008C010F0000E126E0A0E9A
:104AE600116E0AEC12F0D8900F361036DC0E0F2439
:104AF600D96E010E1020DA6EDF50836E000E026E44
:104B0600020E016EA8EC11F0000E4C6E000E4B6EFC
:104B160002D04B4A4C2AE80E4B5C030E4C58D8A0E8
:104B2600F8D7474A482A48BE26D7485005E1230EFB
:104B3600475CD8B012001FD71200020E1F182010B3
:104B4600D8A412002106D8A02206800E92EC10F0FE
:104B5600180E076E7F0E086EF4EC12F0C60E92EC7D
:104B660010F021C015F022C016F0370E176E000E99
:104B7600186E44EC22F0370E076E000E086EF4EC49
:104B860012F0CB0E92EC10F0F90E076E7F0E086E47
:104B9600F4EC12F022AE0DD021C023F022C024F096
:104BA600231E241E234A242A23C049F024C04AF087
:104BB60004D021C049F022C04AF0000E486E000E13
:104BC600476E49C00FF04AC010F0000E126E0A0E72
:104BD600116E0AEC12F0D8900F361036DC0E0F2448
:104BE600D96E010E1020DA6EDF50836E000E026E53
:104BF600050E016EA8EC11F0000E4C6E000E4B6E09
:104C060002D04B4A4C2AE80E4B5C030E4C58D8A0F7
:104C1600F8D7000E0A6E0A0E096E49C007F04AC0A0
:104C260008F0B2EC12F007C00FF008C010F0000E4A
:104C3600126E0A0E116E0AEC12F0D8900F3610366C
:104C4600DC0E0F24D96E010E1020DA6EDF50836E53
:104C5600000E026E040E016EA8EC11F0000E4C6EF2
:104C6600000E4B6E02D04B4A4C2AE80E4B5C030EEC
:104C76004C58D8A0F8D7000E0A6E640E096E49C0CB
:104C860007F04AC008F0B2EC12F007C00FF008C0F7
:104C960010F0000E126E0A0E116E0AEC12F0D89089
:104CA6000F361036DC0E0F24D96E010E1020DA6E88
:104CB600DF50836E000E026E030E016EA8EC11F03B
:104CC600000E4C6E000E4B6E02D04B4A4C2AE80E7C
:104CD6004B5C030E4C58D8A0F8D722AE16D0400E27
:104CE600836E000E026E020E016EA8EC11F0000E2D
:104CF6004C6E000E4B6E02D04B4A4C2AE80E4B5CB3
:104D0600030E4C58D8B033D0F7D7030E0A6EE80E10
:104D1600096E49C007F04AC008F0B2EC12F007C0AD
:104D26000FF008C010F0000E126E0A0E116E0AEC9B
:104D360012F0D8900F361036DC0E0F24D96E010E05
:104D46001020DA6EDF50836E000E026E020E016EC8
:104D5600A8EC11F0000E4C6E000E4B6E02D04B4AC2
:104D66004C2AE80E4B5C030E4C58D8A0F8D7474A9D
:104D7600482A48BE26D7485005E1230E475CD8B0DE
:104D860012001FD712003F0E936E010E92EC10F028
:104D9600800E92EC10F0770E076E7F0E086EF4EC24
:104DA60012F0C00E92EC10F05D0E076E7F0E086ECC
:104DB600F4EC12F0900E92EC10F06A0E076E7F0E75
:104DC600086EF4EC12F0D00E92EC10F0530E076E53
:104DD6007E0E086EF4EC12F081B681A804D081AA8A
:104DE60002D081B0F9D781B658D1010E92EC10F0FD
:104DF600800E92EC10F0A80E076E7E0E086EF4EC94
:104E060012F0C00E92EC10F0310E076E7E0E086E98
:104E1600F4EC12F0900E92EC10F0F80E936E000E79
:104E26000001AE6F000EF46F000EF36F000E9F6F61
:104E3600000E9E6FD8909E35D96E9F35DA6E200E85
:104E4600D926020EDA22000EDE6E000EDD6E9E4BB5
:104E56009F2B9FBFEFD79F5132E1100E9E5DD8B0BA
:104E66002ED0E8D70F0E956E000E076E000E066E5A
:104E7600D6EC16F0300F0001AE6F000E076E000E76
:104E8600066ED6EC16F00001E16FE26BD8909A350B
:104E9600D96E9B35DA6E200ED926020EDA22E1C0D3
:104EA600DEFFE2C0DDFF9A4B9B2B3C0EAE6102D0CB
:104EB6009C4B9D2B000E956EAE51A7EC10F03B0E51
:104EC6000001AE65CFD7FF0E9C25E36FFF0E9D2137
:104ED600E46F000E9B6F000E9A6F89D0E3C001F05D
:104EE600E4C002F0000E02BEFF0E036E046E010E59
:104EF60058EC17F001C0E9F002C0EAF003C0EBF08D
:104F060004C0ECF0E9C0CCF0EAC0CDF0EBC0CEF0C6
:104F1600ECC0CFF0000E0001C86F000EC96F200E66
:104F2600CA6F410ECB6FFCEC2AF0C8C0EDF0C9C0C9
:104F3600EEF0CAC0EFF0CBC0F0F0EDC013F0EEC05B
:104F460014F0EFC015F0F0C016F0D89000019A35B5
:104F5600D96E9B35DA6E200ED926020EDA22DECF06
:104F660001F0DDCF02F0000E02BEFF0E036E046EEE
:104F7600010E58EC17F001C00FF002C010F003C08C
:104F860011F004C012F088EC1EF00FC02CF010C017
:104F96002DF011C02EF012C02FF0F3C001F0F4C0B6
:104FA60002F0000E02BEFF0E036E046E010E58ECF8
:104FB60017F001C028F002C029F003C02AF004C08F
:104FC6002BF061EC1BF028C0D9F029C0DAF02AC01A
:104FD600DBF02BC0DCF0F7EC13F0D9C0F3F0DAC04D
:104FE600F4F00001E307D8A0E4079A4B9B2B9C51F1
:104FF6009A5D9B51800AE16F9D51800AE159D8A0C4
:105006006DD73F0E936E010E92EC10F0B40E076E44
:105016007F0E086EF4EC12F0C00E92EC10F0000E4B
:1050260000019B6F000E9A6F16D0D8909A35D96EF4
:105036009B35DA6E200ED926020EDA22DF50300FAB
:10504600A7EC10F0000E026E140E016ED3EC10F0F9
:1050560000019A4B9B2B9C519A5D9B51800AE16FF4
:105066009D51800AE159D8A0E0D7900E92EC10F03D
:10507600500E076E7F0E086EF4EC12F081B0FED76C
:10508600FB0E076E7F0E086EF4EC12F0030E026E36
:10509600E80E016ED3EC10F076D681B852D1010E2F
:1050A60092EC10F0800E92EC10F0A80E076E7E0EB9
:1050B600086EF4EC12F0C00E92EC10F00F0E076EB4
:1050C6007E0E086EF4EC12F0900E92EC10F0F80ED4
:1050D600936E000E0001AD6F000E936F000E926F7F
:1050E600000E996F000E986F99BF06D0995141E155
:1050F600100E985DD8B03DD0D8909835D96E9935B8
:10510600DA6EBC0ED926010EDA22000EDE6E000E15
:10511600DD6E984B992BE8D70F0E956E000E076E35
:10512600000E066ED6EC16F0300F0001AD6F000EC5
:10513600076E000E066ED6EC16F00001E16FE26B0C
:10514600D8909435D96E9535DA6EBC0ED926010EF7
:10515600DA22E1C0DEFFE2C0DDFF944B952B3C0E68
:10516600AD6102D0964B972B000E956EAD51A7EC14
:1051760010F03B0E0001AD65CFD7FF0E9625E56F0B
:10518600FF0E9721E66F000E956F000E946F89D083
:10519600E5C001F0E6C002F0000E02BEFF0E036E8F
:1051A600046E010E58EC17F001C0E9F002C0EAF0F7
:1051B60003C0EBF004C0ECF0E9C0CCF0EAC0CDF0DF
:1051C600EBC0CEF0ECC0CFF0000E0001C86F000EB1
:1051D600C96F200ECA6F410ECB6FFCEC2AF0C8C017
:1051E600EDF0C9C0EEF0CAC0EFF0CBC0F0F0EDC0F4
:1051F60013F0EEC014F0EFC015F0F0C016F0D89022
:1052060000019435D96E9535DA6EBC0ED926010E9D
:10521600DA22DECF01F0DDCF02F0000E02BEFF0E75
:10522600036E046E010E58EC17F001C00FF002C0B9
:1052360010F003C011F004C012F088EC1EF00FC08D
:105246002CF010C02DF011C02EF012C02FF092C01D
:1052560001F093C002F0000E02BEFF0E036E046E54
:10526600010E58EC17F001C028F002C029F003C067
:105276002AF004C02BF061EC1BF028C0D9F029C03D
:10528600DAF02AC0DBF02BC0DCF0F7EC13F0D9C063
:1052960092F0DAC093F00001E507D8A0E607944B38
:1052A600952B9651945D9551800AE16F9751800A2E
:1052B600E159D8A06DD73F0E936E010E92EC10F017
:1052C6009E0E076E7F0E086EF4EC12F0C00E92EC86
:1052D60010F0000E0001956F000E946F16D0D89056
:1052E6009435D96E9535DA6EBC0ED926010EDA22C2
:1052F600DF50300FA7EC10F0000E026E140E016E98
:10530600D3EC10F00001944B952B9651945D95517A
:10531600800AE16F9751800AE159D8A0E0D7900E34
:1053260092EC10F0500E076E7F0E086EF4EC12F041
:1053360081B0FED7FB0E076E7F0E086EF4EC12F0FE
:10534600A5D681BA52D1010E92EC10F0800E92ECE5
:1053560010F0A80E076E7E0E086EF4EC12F0C00E6A
:1053660092EC10F0200E076E7E0E086EF4EC12F032
:10537600900E92EC10F0F80E936E000E0001AC6FDA
:10538600000E8B6F000E8A6F000E916F000E906FED
:1053960091BF06D0915141E1100E905DD8B03DD03D
:1053A600D8909035D96E9135DA6E000ED926020E58
:1053B600DA22000EDE6E000EDD6E904B912BE8D7E2
:1053C6000F0E956E000E076E000E066ED6EC16F0EA
:1053D600300F0001AC6F000E076E000E066ED6ECA5
:1053E60016F00001E16FE26BD8908C35D96E8D35E1
:1053F600DA6E000ED926020EDA22E1C0DEFFE2C026
:10540600DDFF8C4B8D2B3C0EAC6102D08E4B8F2B6F
:10541600000E956EAC51A7EC10F03B0E0001AC658A
:10542600CFD7FF0E8E25E76FFF0E8F21E86F000E98
:105436008D6F000E8C6F89D0E7C001F0E8C002F0D6
:10544600000E02BEFF0E036E046E010E58EC17F03E
:1054560001C0E9F002C0EAF003C0EBF004C0ECF0D2
:10546600E9C0CCF0EAC0CDF0EBC0CEF0ECC0CFF096
:10547600000E0001C86F000EC96F200ECA6F410EE4
:10548600CB6FFCEC2AF0C8C0EDF0C9C0EEF0CAC084
:10549600EFF0CBC0F0F0EDC013F0EEC014F0EFC0AB
:1054A60015F0F0C016F0D89000019435D96E9535F8
:1054B600DA6EBC0ED926010EDA22DECF01F0DDCF80
:1054C60002F0000E02BEFF0E036E046E010E58ECD3
:1054D60017F001C00FF002C010F003C011F004C0B5
:1054E60012F088EC1EF00FC02CF010C02DF011C089
:1054F6002EF012C02FF092C001F093C002F0000E01
:1055060002BEFF0E036E046E010E58EC17F001C0CA
:1055160028F002C029F003C02AF004C02BF061EC89
:105526001BF028C0D9F029C0DAF02AC0DBF02BC066
:10553600DCF0F7EC13F0D9C092F0DAC093F000017A
:10554600E707D8A0E8078C4B8D2B8E518C5D8D51CB
:10555600800AE16F8F51800AE159D8A06DD73F0EBE
:10556600936E010E92EC10F0A90E076E7F0E086E78
:10557600F4EC12F0C00E92EC10F0000E00018D6FEC
:10558600000E8C6F16D0D8908C35D96E8D35DA6EAC
:10559600000ED926020EDA22DF50300FA7EC10F0EB
:1055A600000E026E140E016ED3EC10F000018C4B4F
:1055B6008D2B8E518C5D8D51800AE16F8F51800A43
:1055C600E159D8A0E0D7900E92EC10F0500E076E7D
:1055D6007F0E086EF4EC12F081B0FED7FB0E076E5C
:1055E6007F0E086EF4EC12F051D581A01200C6EFC2
:1055F60026F0C8C0B8F1C9C0B9F1CAC0BAF1CBC06B
:10560600BBF1B8C160F1B9C161F1BAC162F1BBC108
:1056160063F1CCC0B8F1CDC0B9F1CEC0BAF1CFC0FC
:10562600BBF1B8C184F1B9C185F1BAC186F1BBC17C
:1056360087F1FF0E01016015A86FFF0E6115A96FB6
:10564600FF0E6215AA6F7F0E6315AB6FFF0E8415F2
:10565600986FFF0E8515996FFF0E86159A6F7F0E50
:1056660087159B6F985199119A119B11D8A40AD04E
:10567600000E0001C86F000EC96F800ECA6F3F0E84
:10568600CB6F1200800E621910E13F0E6319601194
:105696006111D8A40AD0000E0001C86F000EC96FB0
:1056A600800ECA6F3F0ECB6F1200ABBF09D0A805A4
:1056B600000EA959800EAA597F0EAB59D8B00BD04F
:1056C6009BBF24D09805000E9959800E9A597F0EDB
:1056D6009B59D8A01BD0C8C028F0C9C029F0CAC0A1
:1056E6002AF0CBC02BF0CCC02CF0CDC02DF0CEC014
:1056F6002EF0CFC02FF061EC1BF028C0C8F029C0F7
:10570600C9F02AC0CAF02BC0CBF01200000E506FB1
:10571600000E516F000E526F000E536F63AFB1D083
:105726009BBF0ED0800E9A5D4B0E9B59D8A008D019
:10573600020E506F000E516F000E526F000EA0D079
:105746009BBF9FD0800E9A5D3F0E9B59D8A099D0E3
:10575600170E0001D06F98C1D1F099C1D2F09AC14D
:10576600D3F09BC1D4F0D06701D007D0D435D43361
:10577600D333D233D133D02FF6D7810E0001D125C2
:105786000101A06FFF0E0001D2210101A16FFF0EE2
:105796000001D3210101A26FFF0E0001D4210101F6
:1057A600A36FA05117080001D06F98C1D1F099C11D
:1057B600D2F09AC1D3F09BC1D4F0D06701D007D004
:1057C600D435D433D333D233D133D02FF6D7D1C057
:1057D600ACF1D2C0ADF1D3C0AEF1D4C0AFF101018E
:1057E600A05117080001D06FACC1D1F0ADC1D2F005
:1057F600AEC1D3F0AFC1D4F0D02B05D0D890D137FD
:10580600D237D337D437D02FF9D7010198510001B9
:10581600D11937E1010199510001D21932E1010193
:105826009A510001D3192DE101019B510001D419B0
:10583600D8A427D0010E0101AC150001D06F000ECF
:105846000101AD150001D16F000E0101AE15000179
:10585600D26F000E0101AF150001D36FD0510208BF
:105866000101506F000E0001D1550101516F000E6C
:105876000001D2550101526F000E0001D3550101FE
:10588600536F800E01019A1958E17F0E9B199811EA
:105896009911D8A452D0800EAA1910E13F0EAB1967
:1058A600A811A911D8A40AD0000E0001C86F000ED5
:1058B600C96F800ECA6F3F0ECB6F1200ABBF1ED0F2
:1058C600A805000EA959800EAA593F0EAB59D8A0BB
:1058D60015D087AF0AD0000E0001C86F000EC96F41
:1058E600000ECA6F000ECB6F1200CCC0C8F0CDC040
:1058F600C9F0CEC0CAF0CFC0CBF0120087AF13D02C
:10590600CCC001F0CDC002F0CEC003F0CFC004F091
:10591600BCEC10F001C0C8F002C0C9F003C0CAF068
:1059260004C0CBF01200000E0001C86F000EC96F54
:10593600000ECA6F000ECB6F1200800E9A192CE172
:105946003F0E9B1998119911D8A426D087AF1BD06A
:10595600000E406E000E416E800E426E3F0E436E8C
:10596600C8C044F0C9C045F0CAC046F0CBC047F035
:105976001DEC1AF040C0C8F041C0C9F042C0CAF0E0
:1059860043C0CBF01200C8C0C8F0C9C0C9F0CAC035
:10599600CAF0CBC0CBF01200400E871984118511D6
:1059A6008611D8A41BD0C8C00FF0C9C010F0CAC059
:1059B60011F0CBC012F0C8C013F0C9C014F0CAC0B1
:1059C60015F0CBC016F088EC1EF00FC0C8F010C062
:1059D600C9F011C0CAF012C0CBF012003F0E8719F1
:1059E600841185118611D8B463BF13D0C8C04CF09A
:1059F600C9C04DF0CAC04EF0CBC04FF031EC20F01C
:105A06004CC0C8F04DC0C9F04EC0CAF04FC0CBF074
:105A16001200C8C001F0C9C002F0CAC003F0CBC072
:105A260004F0ECEC10F001C070F102C071F103C09B
:105A360072F104C073F1800E0101AA1906E17F0E0E
:105A4600AB19A811A911D8B40FD0A851A911AA1140
:105A5600AB11D8B409D0800EAA1905E13F0EAB19D7
:105A6600A811A911D8A4B5D070C1B4F171C1B5F10E
:105A760072C1B6F173C1B7F187AF1AD0000E406E8E
:105A8600000E416E800E426E3F0E436EB4C144F06E
:105A9600B5C145F0B6C146F0B7C147F01DEC1AF0E6
:105AA60040C0B4F141C0B5F142C0B6F143C0B7F150
:105AB600010163AF85D0000EA8250001D06F000E4E
:105AC6000101A9210001D16F800E0101AA21000167
:105AD600D26FC00E0101AB210001D36F01015051FD
:105AE6000001D011D46F010151510001D111D56FC0
:105AF600010152510001D211D66F0101535100012B
:105B0600D311D76FD451D511D611D711D8A43FD000
:105B1600B4C13CF0B5C13DF0B6C13EF0B7C13FF0EF
:105B2600B4C138F0B5C139F0B6C13AF0B7C13BF0EF
:105B360006EC11F038C040F039C041F03AC042F0EE
:105B46003BC043F0B4C13CF0B5C13DF0B6C13EF038
:105B5600B7C13FF0B4C138F0B5C139F0B6C13AF0BB
:105B6600B7C13BF006EC11F038C044F039C045F03F
:105B76003AC046F03BC047F01DEC1AF040C0B4F105
:105B860041C0B5F142C0B6F143C0B7F119D0010129
:105B96005005511152115311D8A412D0B4C101F0BD
:105BA600B5C102F0B6C103F0B7C104F0BCEC10F009
:105BB60001C0B4F102C0B5F103C0B6F104C0B7F13B
:105BC600B4C1C8F0B5C1C9F0B6C1CAF0B7C1CBF00F
:105BD6001200000E886F000E896F800E8A6F3F0ECE
:105BE6008B6F63AF53D05051511152115311D8A43A
:105BF6003FD0C8C03CF0C9C03DF0CAC03EF0CBC0E3
:105C06003FF0C8C038F0C9C039F0CAC03AF0CBC0BE
:105C16003BF006EC11F038C040F039C041F03AC014
:105C260042F03BC043F0C8C03CF0C9C03DF0CAC01A
:105C36003EF0CBC03FF0C8C038F0C9C039F0CAC08A
:105C46003AF0CBC03BF006EC11F038C044F039C056
:105C560045F03AC046F03BC047F01DEC1AF040C094
:105C6600C8F041C0C9F042C0CAF043C0CBF0120030
:105C76005005511152115311D8A408D0000E886F47
:105C8600000E896F800E8A6FBF0E8B6F9BBF6BD223
:105C96009805000E9959000E9A594D0E9B59D8A099
:105CA60062D2ABBF0AD0F80EA85DFF0EA9597F0ECF
:105CB600AA593F0EAB59D8B06CD087BF35D0600E0D
:105CC600136E420E146EA20E156E0D0E166E88C160
:105CD6000FF089C110F08AC111F08BC112F088EC67
:105CE6001EF00FC0A4F110C0A5F111C0A6F112C09C
:105CF600A7F1A4C10FF0A5C110F0A6C111F0A7C16C
:105D060012F0600E136E420E146EA20E156E0D0E7C
:105D1600166E88EC1EF00FC0C8F010C0C9F011C096
:105D2600CAF012C0CBF01200CA0E136EF20E146E39
:105D3600490E156E710E166E88C10FF089C110F0EE
:105D46008AC111F08BC112F088EC1EF00FC0A4F1CD
:105D560010C0A5F111C0A6F112C0A7F1A4C10FF0A1
:105D6600A5C110F0A6C111F0A7C112F0CA0E136E9C
:105D7600F20E146E490E156E710E166E88EC1EF03C
:105D86000FC0C8F010C0C9F011C0CAF012C0CBF0E5
:105D96001200ABBF7DD0080EA85D000EA959800E7B
:105DA600AA593F0EAB59D8A073D087BF07D08751E9
:105DB6008611851138E18405D8B035D0600E136E92
:105DC600420E146EA20E156E0D0E166E88C10FF0E1
:105DD60089C110F08AC111F08BC112F088EC1EF057
:105DE6000FC0A4F110C0A5F111C0A6F112C0A7F111
:105DF600A4C10FF0A5C110F0A6C111F0A7C112F001
:105E0600600E136E420E146EA20E156E0D0E166EF9
:105E160088EC1EF00FC0C8F010C0C9F011C0CAF05F
:105E260012C0CBF01200CA0E136EF20E146E490E9B
:105E3600156E710E166E88C10FF089C110F08AC1F9
:105E460011F08BC112F088EC1EF00FC0A4F110C047
:105E5600A5F111C0A6F112C0A7F1A4C10FF0A5C10A
:105E660010F0A6C111F0A7C112F0CA0E136EF20E01
:105E7600146E490E156E710E166E88EC1EF00FC06C
:105E8600C8F010C0C9F011C0CAF012C0CBF01200A1
:105E960070C128F071C129F072C12AF073C12BF0CC
:105EA600000E2C6E000E2D6E800E2E6EBF0E2F6E07
:105EB60061EC1BF028C0B0F129C0B1F12AC0B2F1E3
:105EC6002BC0B3F1000E136E000E146E800E156E0D
:105ED6003E0E166EB0C10FF0B1C110F0B2C111F096
:105EE600B3C112F088EC1EF00FC03CF010C03DF0BC
:105EF60011C03EF012C03FF0AB0E386EAA0E396EDE
:105F0600AA0E3A6E3E0E3B6E06EC11F038C0A4F1B6
:105F160039C0A5F13AC0A6F13BC0A7F1B0C113F054
:105F2600B1C114F0B2C115F0B3C116F0B0C10FF093
:105F3600B1C110F0B2C111F0B3C112F088EC1EF07D
:105F46000FC054F110C055F111C056F112C057F1EF
:105F5600B0C113F0B1C114F0B2C115F0B3C116F05F
:105F6600A4C10FF0A5C110F0A6C111F0A7C112F08F
:105F760088EC1EF00FC03CF010C03DF011C03EF0A2
:105F860012C03FF0000E386E000E396E000E3A6EEB
:105F96003F0E3B6E06EC11F038C048F139C049F1AE
:105FA6003AC04AF13BC04BF154C10FF055C110F055
:105FB60056C111F057C112F048C113F049C114F08F
:105FC6004AC115F04BC116F088EC1EF00FC044F123
:105FD60010C045F111C046F112C047F1B0C10FF033
:105FE600B1C110F0B2C111F0B3C112F0000E136EC0
:105FF600AA0E146EB80E156E3F0E166E88EC1EF0C5
:106006000FC074F110C075F111C076F112C077F1AE
:10601600700E136EA50E146EEC0E156E360E166E01
:10602600B0C10FF0B1C110F0B2C111F0B3C112F09E
:1060360088EC1EF00FC038F010C039F011C03AF0ED
:1060460012C03BF03B0E136EAA0E146EB80E156E00
:106056003F0E166E44C10FF045C110F046C111F057
:1060660047C112F088EC1EF00FC03CF010C03DF0A6
:1060760011C03EF012C03FF006EC11F038C078F1C6
:1060860039C079F13AC07AF13BC07BF174C128F08E
:1060960075C129F076C12AF077C12BF078C12CF0B2
:1060A60079C12DF07AC12EF07BC12FF061EC1BF087
:1060B60028C080F129C081F12AC082F12BC083F16A
:1060C60080C1B8F181C1B9F182C1BAF183C1BBF116
:1060D600B8C190F1B9C191F1BAC192F1BBC193F1C6
:1060E600000E01019015B86FF00E9115B96FFF0EF5
:1060F6009215BA6FFF0E9315BB6FB8C180F1B9C187
:1061060081F1BAC182F1BBC183F174C13CF075C1A2
:106116003DF076C13EF077C13FF080C138F081C1D5
:1061260039F082C13AF083C13BF006EC11F038C079
:1061360094F139C095F13AC096F13BC097F178C118
:1061460038F079C139F07AC13AF07BC13BF094C19D
:106156003CF095C13DF096C13EF097C13FF006EC8C
:1061660011F0FDEF37F0000E7C6F000E7D6F000E14
:106176007E6F000E7F6FABBF06D0AB5137E1800E4E
:10618600AA5DD8B033D070C10FF071C110F072C1E2
:1061960011F073C112F0000E136E000E146E800E15
:1061A600156E4B0E166E88EC1EF00FC070F110C007
:1061B60071F111C072F112C073F1E80E01017C2772
:1061C600FF0E7D23FF0E7E23FF0E7F2370C1B8F1E5
:1061D60071C1B9F172C1BAF173C1BBF1B8C1A8F10D
:1061E600B9C1A9F1BAC1AAF1BBC1ABF1170E000141
:1061F600D06FA8C1D1F0A9C1D2F0AAC1D3F0ABC16A
:10620600D4F0D06701D007D0D435D433D333D233CA
:10621600D133D02FF6D7810E0001D125D56FFF0ED1
:10622600D221D66FFF0ED321D76FFF0ED421D86FA0
:10623600D55101017C270001D65101017D230001C2
:10624600D75101017E230001D85101017F23FF0EA2
:10625600A815AC6FFF0EA915AD6F7F0EAA15AE6F10
:10626600000EAB15AF6F000EAC11A86F000EAD118E
:10627600A96F800EAE11AA6F3F0EAF11AB6FAFBF05
:106286000AD0AF510AE1720EAC5DC40EAD591C0EB8
:10629600AE59D8B002D0000E0DD0AFBF0AD0AF5164
:1062A60011E1D70EAC5DB30EAD595D0EAE59D8B047
:1062B60009D0010EA06F000EA16F000EA26F000E96
:1062C600A36F16D0000EA06F000EA16F000EA26F76
:1062D600000EA36F010E7C27000E7D237E237F23F5
:1062E600000EA827000EA923800EAA23FF0EAB23BB
:1062F600A8C1B8F1A9C1B9F1AAC1BAF1ABC1BBF144
:10630600B8C170F1B9C171F1BAC172F1BBC173F113
:1063160070C138F071C139F072C13AF073C13BF007
:10632600A0C1D0F0A1C1D1F00001D890D037D137AB
:10633600D890D037D137FB0ED025F66E7D0ED12101
:10634600F76E0900F5CF3CF00900F5CF3DF00900E6
:10635600F5CF3EF00A00F5CF3FF006EC11F038C05D
:1063660074F139C075F13AC076F13BC077F1000E91
:10637600406E000E416E800E426E3F0E436E70C13F
:106386002CF071C12DF072C12EF073C12FF0A0C197
:10639600D0F0A1C1D1F00001D890D037D137D89034
:1063A600D037D137FB0ED025F66E7D0ED121F76E94
:1063B6000900F5CF28F00900F5CF29F00900F5CF3F
:1063C6002AF00A00F5CF2BF061EC1BF028C044F050
:1063D60029C045F02AC046F02BC047F01DEC1AF044
:1063E60040C078F141C079F142C07AF143C07BF1F7
:1063F60074C10FF075C110F076C111F077C112F0BB
:1064060078C113F079C114F07AC115F07BC116F08A
:1064160088EC1EF00FC05CF110C05DF111C05EF19A
:1064260012C05FF15CC16CF15DC16DF15EC16EF1D0
:106436005FC16FF16CC1B8F16DC1B9F16EC1BAF14E
:106446006FC1BBF1B8C190F1B9C191F1BAC192F176
:10645600BBC193F1000E01019015B86FF00E9115B6
:10646600B96FFF0E9215BA6FFF0E9315BB6FB8C1C9
:106476006CF1B9C16DF1BAC16EF1BBC16FF1A8C1C2
:10648600D0F0A9C1D1F0AAC1D2F0ABC1D3F00001BE
:10649600D335D333D233D133D033000ED015D46FA6
:1064A600F00ED115D56FFF0ED215D66FFF0ED31590
:1064B600D76F000ED4110101906F000E0001D511A7
:1064C6000101916F000E0001D6110101926F200E9D
:1064D6000001D7110101936FA0C1D0F0A1C1D1F085
:1064E600A2C1D2F0A3C1D3F0150ED8900001D037C7
:1064F600D137D237D337E82EF8D7010190510001B2
:10650600D025D46F010191510001D121D56F010130
:1065160092510001D221D66F010193510001D3217E
:10652600D76F000ED4250101B86F000E0001D521EA
:106536000101B96F400E0001D6210101BA6F000EAC
:106546000001D7210101BB6FB8C168F1B9C169F17A
:10655600BAC16AF1BBC16BF1A0C1D0F0A1C1D1F043
:106566000001D890D037D137D890D037D137FB0E2D
:10657600D025F66E7D0ED121F76E0900F5CF3CF0E1
:106586000900F5CF3DF00900F5CF3EF00A00F5CF42
:106596003FF068C138F069C139F06AC13AF06BC1A1
:1065A6003BF006EC11F038C094F139C095F13AC0D1
:1065B60096F13BC097F170C138F071C139F072C1E4
:1065C6003AF073C13BF094C13CF095C13DF096C1E1
:1065D6003EF097C13FF006EC11F038C034F139C0F7
:1065E60035F13AC036F13BC037F168C113F069C1E5
:1065F60014F06AC115F06BC116F06CC10FF06DC1D5
:1066060010F06EC111F06FC112F088EC1EF00FC0D1
:106616003CF010C03DF011C03EF012C03FF074C116
:1066260038F075C139F076C13AF077C13BF006EC27
:1066360011F038C094F139C095F13AC096F13BC0DB
:1066460097F134C113F035C114F036C115F037C1D6
:1066560016F06CC10FF06DC110F06EC111F06FC174
:1066660012F088EC1EF00FC03CF010C03DF011C0D7
:106676003EF012C03FF094C138F095C139F096C192
:106686003AF097C13BF006EC11F038C054F139C02E
:1066960055F13AC056F13BC057F154C10FF055C100
:1066A60010F056C111F057C112F078C113F079C13C
:1066B60014F07AC115F07BC116F088EC1EF00FC0FD
:1066C60030F110C031F111C032F112C033F15CC1AA
:1066D6000FF05DC110F05EC111F05FC112F05CC138
:1066E60013F05DC114F05EC115F05FC116F088ECC1
:1066F6001EF00FC08CF110C08DF111C08EF112C0CA
:106706008FF1550E2C6E320E2D6E6C0E2E6E3E0EC9
:106716002F6E420E136EF10E146E530E156E3E0E54
:10672600166E8CC10FF08DC110F08EC111F08FC1A5
:1067360012F088EC1EF00FC028F010C029F011C02E
:106746002AF012C02BF061EC1BF028C0A4F129C07E
:10675600A5F12AC0A6F12BC0A7F1050E2C6EA30E3B
:106766002D6E8B0E2E6E3E0E2F6E8CC113F08DC1CC
:1067760014F08EC115F08FC116F0A4C10FF0A5C19B
:1067860010F0A6C111F0A7C112F088EC1EF00FC0E0
:1067960028F010C029F011C02AF012C02BF061ECCD
:1067A6001BF028C054F129C055F12AC056F12BC060
:1067B60057F1AB0E2C6EAA0E2D6EAA0E2E6E3E0E45
:1067C6002F6E8CC113F08DC114F08EC115F08FC1E0
:1067D60016F054C10FF055C110F056C111F057C153
:1067E60012F088EC1EF00FC028F010C029F011C07E
:1067F6002AF012C02BF061EC1BF028C048F129C02A
:1068060049F12AC04AF12BC04BF1B70E2C6E6D0E22
:106816002D6EDB0E2E6E3E0E2F6E8CC113F08DC1CB
:1068260014F08EC115F08FC116F048C10FF049C1A2
:1068360010F04AC111F04BC112F088EC1EF00FC0E7
:1068460028F010C029F011C02AF012C02BF061EC1C
:106856001BF028C038F129C039F12AC03AF12BC003
:106866003BF19A0E2C6E990E2D6E190E2E6E3F0E62
:106876002F6E8CC113F08DC114F08EC115F08FC12F
:1068860016F038C10FF039C110F03AC111F03BC112
:1068960012F088EC1EF00FC028F010C029F011C0CD
:1068A6002AF012C02BF061EC1BF028C000F129C0C1
:1068B60001F12AC002F12BC003F18CC113F08DC186
:1068C60014F08EC115F08FC116F08CC10FF08DC17A
:1068D60010F08EC111F08FC112F088EC1EF00FC0BF
:1068E60004F110C005F111C006F112C007F100C194
:1068F6000FF001C110F002C111F003C112F004C182
:1069060013F005C114F006C115F007C116F088ECA6
:106916001EF00FC04CF110C04DF111C04EF112C067
:106926004FF130C113F031C114F032C115F033C14B
:1069360016F05CC12CF05DC12DF05EC12EF05FC17A
:106946002FF06CC128F06DC129F06EC12AF06FC11D
:106956002BF061EC1BF028C00FF029C010F02AC004
:1069660011F02BC012F088EC1EF00FC058F110C0C9
:1069760059F111C05AF112C05BF14CC128F04DC15A
:1069860029F04EC12AF04FC12BF058C12CF059C145
:106996002DF05AC12EF05BC12FF061EC1BF028C020
:1069A6004CF129C04DF12AC04EF12BC04FF16CC1FC
:1069B6000FF06DC110F06EC111F06FC112F06CC115
:1069C60013F06DC114F06EC115F06FC116F088ECAE
:1069D6001EF00FC08CF110C08DF111C08EF112C0E7
:1069E6008FF1000E2C6E000E2D6E400E2E6E400E98
:1069F6002F6E8CC128F08DC129F08EC12AF08FC16F
:106A06002BF061EC1BF028C058F129C059F12AC0BF
:106A16005AF12BC05BF158C128F059C129F05AC16F
:106A26002AF05BC12BF04CC12CF04DC12DF04EC1AC
:106A36002EF04FC12FF061EC1BF028C068F129C081
:106A460069F12AC06AF12BC06BF168C1B8F169C15E
:106A5600B9F16AC1BAF16BC1BBF1B8C190F1B9C164
:106A660091F1BAC192F1BBC193F1000E01019015EB
:106A7600B86FF00E9115B96FFF0E9215BA6FFF0E33
:106A86009315BB6FB8C168F1B9C169F1BAC16AF1B2
:106A9600BBC16BF1000E2C6E000E2D6E400E2E6EDD
:106AA600C00E2F6E68C128F069C129F06AC12AF0AC
:106AB6006BC12BF061EC1BF028C03CF129C03DF105
:106AC6002AC03EF12BC03FF18CC13CF08DC13DF098
:106AD6008EC13EF08FC13FF03CC138F03DC139F068
:106AE6003EC13AF03FC13BF006EC11F038C040F130
:106AF60039C041F13AC042F13BC043F14CC138F0D4
:106B06004DC139F04EC13AF04FC13BF040C13CF0A7
:106B160041C13DF042C13EF043C13FF006EC11F0E9
:106B260038C034F139C035F13AC036F13BC037F1DF
:106B36006CC10FF06DC110F06EC111F06FC112F093
:106B460068C113F069C114F06AC115F06BC116F083
:106B560088EC1EF00FC074F110C075F111C076F10B
:106B660012C077F168C113F069C114F06AC115F05B
:106B76006BC116F030C10FF031C110F032C111F007
:106B860033C112F088EC1EF00FC028F010C029F0B7
:106B960011C02AF012C02BF05CC113F05DC114F0D5
:106BA6005EC115F05FC116F034C10FF035C110F0AB
:106BB60036C111F037C112F088EC1EF00FC02CF070
:106BC60010C02DF011C02EF012C02FF061EC1BF09A
:106BD60028C078F129C079F12AC07AF12BC07BF15F
:106BE60074C128F075C129F076C12AF077C12BF05F
:106BF60078C12CF079C12DF07AC12EF07BC12FF02F
:106C060061EC1BF028C09CF129C09DF12AC09EF1C1
:106C16002BC09FF19CC1B8F19DC1B9F19EC1BAF1DB
:106C26009FC1BBF1B8C190F1B9C191F1BAC192F15E
:106C3600BBC193F1000E01019015B86FF00E9115CE
:106C4600B96FFF0E9215BA6FFF0E9315BB6FB8C1E1
:106C56009CF1B9C19DF1BAC19EF1BBC19FF174C14E
:106C66003CF075C13DF076C13EF077C13FF09CC166
:106C760038F09DC139F09EC13AF09FC13BF006EC59
:106C860011F038C094F139C095F13AC096F13BC085
:106C960097F178C138F079C139F07AC13AF07BC101
:106CA6003BF094C13CF095C13DF096C13EF097C1D2
:106CB6003FF006EC11F038C064F139C065F13AC016
:106CC60066F13BC067F19CC10FF09DC110F09EC1FB
:106CD60011F09FC112F0000E136E400E146E760E68
:106CE600156E3F0E166E88EC1EF00FC020F110C018
:106CF60021F111C022F112C023F14F0E136E380E8E
:106D0600146E760E156E3F0E166E64C10FF065C1D9
:106D160010F066C111F067C112F088EC1EF00FC0CA
:106D26002CF010C02DF011C02EF012C02FF0C60EA0
:106D3600136E230E146EF60E156EB80E166E9CC1EB
:106D46000FF09DC110F09EC111F09FC112F088ECAA
:106D56001EF00FC028F010C029F011C02AF012C092
:106D66002BF061EC1BF028C058F129C059F12AC05C
:106D76005AF12BC05BF158C128F059C129F05AC10C
:106D86002AF05BC12BF0A0C1D0F0A1C1D1F0000167
:106D9600D890D037D137D890D037D1378F0ED0256D
:106DA600F66E7D0ED121F76E0900F5CF2CF00900A5
:106DB600F5CF2DF00900F5CF2EF00A00F5CF2FF014
:106DC60061EC1BF028C024F129C025F12AC026F168
:106DD6002BC027F17CC101F07DC102F07EC103F01A
:106DE6007FC104F0010E58EC17F001C0B0F102C0EB
:106DF600B1F103C0B2F104C0B3F124C12CF025C136
:106E06002DF026C12EF027C12FF020C128F021C178
:106E160029F022C12AF023C12BF061EC1BF028C017
:106E260058F129C059F12AC05AF12BC05BF1A0C113
:106E3600D0F0A1C1D1F00001D890D037D137D89089
:106E4600D037D137970ED025F66E7D0ED121F76E4D
:106E56000900F5CF2CF00900F5CF2DF00900F5CF8C
:106E66002EF00A00F5CF2FF058C128F059C129F0AD
:106E76005AC12AF05BC12BF061EC1BF028C008F167
:106E860029C009F12AC00AF12BC00BF108C128F06C
:106E960009C129F00AC12AF00BC12BF0B0C12CF0B0
:106EA600B1C12DF0B2C12EF0B3C12FF061EC1BF0D1
:106EB60028C080F129C081F12AC082F12BC083F15C
:106EC60080C1B8F181C1B9F182C1BAF183C1BBF108
:106ED600B8C190F1B9C191F1BAC192F1BBC193F1B8
:106EE600000E01019015B86FF00E9115B96FFF0EE7
:106EF6009215BA6FFF0E9315BB6FB8C180F1B9C179
:106F060081F1BAC182F1BBC183F1B0C13CF0B1C11C
:106F16003DF0B2C13EF0B3C13FF080C138F081C14F
:106F260039F082C13AF083C13BF006EC11F038C06B
:106F360094F139C095F13AC096F13BC097F1A0C1E2
:106F4600D0F0A1C1D1F00001D890D037D137D89078
:106F5600D037D137970ED025F66E7D0ED121F76E3C
:106F66000900F5CF3CF00900F5CF3DF00900F5CF5B
:106F76003EF00A00F5CF3FF094C138F095C139F0E4
:106F860096C13AF097C13BF006EC11F038C040F1DB
:106F960039C041F13AC042F13BC043F120C13CF057
:106FA60021C13DF022C13EF023C13FF040C138F07F
:106FB60041C139F042C13AF043C13BF006EC11F051
:106FC60038C00CF139C00DF13AC00EF13BC00FF1DB
:106FD60024C138F025C139F026C13AF027C13BF06B
:106FE6000CC13CF00DC13DF00EC13EF00FC13FF0AB
:106FF60006EC11F038C01CF139C01DF13AC01EF183
:107006003BC01FF1CCC0B8F1CDC0B9F1CEC0BAF1CA
:10701600CFC0BBF1B8C190F1B9C191F1BAC192F13B
:10702600BBC193F1000E01019015B86FF00E9115DA
:10703600B96FFF0E9215BA6FFF0E9315BB6FB8C1ED
:1070460028F1B9C129F1BAC12AF1BBC12BF180C11E
:1070560013F081C114F082C115F083C116F028C166
:107066003CF029C13DF02AC13EF02BC13FF0CCC017
:1070760038F0CDC039F0CEC03AF0CFC03BF006ECC8
:1070860011F038C00FF039C010F03AC011F03BC013
:1070960012F088EC1EF00FC010F110C011F111C0F3
:1070A60012F112C013F110C128F011C129F012C15A
:1070B6002AF013C12BF01CC113F01DC114F01EC120
:1070C60015F01FC116F0CCC00FF0CDC010F0CEC029
:1070D60011F0CFC012F088EC1EF00FC02CF010C0DB
:1070E6002DF011C02EF012C02FF061EC1BF028C05D
:1070F60064F129C065F12AC066F12BC067F128C189
:107106000FF029C110F02AC111F02BC112F080C175
:1071160013F081C114F082C115F083C116F088EC1A
:107126001EF00FC09CF110C09DF111C09EF112C05F
:107136009FF164C128F065C129F066C12AF067C1D4
:107146002BF09CC12CF09DC12DF09EC12EF09FC14D
:107156002FF061EC1BF028C0B4F129C0B5F12AC0AC
:10716600B6F12BC0B7F1B4C1B8F1B5C1B9F1B6C12A
:10717600BAF1B7C1BBF1B8C1ACF1B9C1ADF1BAC191
:10718600AEF1BBC1AFF10101AFBF3ED0AC05000E01
:10719600AD59000EAE59430EAF59D8A035D0CA0E20
:1071A600136EF20E146E490E156E710E166E88C1B0
:1071B6000FF089C110F08AC111F08BC112F088EC72
:1071C6001EF00FC0A4F110C0A5F111C0A6F112C0A7
:1071D600A7F1A4C10FF0A5C110F0A6C111F0A7C177
:1071E60012F0CA0E136EF20E146E490E156E710E63
:1071F600166E88EC1EF00FC0C8F010C0C9F011C0A2
:10720600CAF012C0CBF01200430EAF19AC11AD118B
:10721600AE11D8A46DD09CC13CF09DC13DF09EC17D
:107226003EF09FC13FF0B4C138F0B5C139F0B6C1E8
:107236003AF0B7C13BF006EC11F038C040F039C067
:1072460041F03AC042F03BC043F03C0E2C6EAA0E11
:107256002D6E380E2E6E330E2F6E64C128F065C16A
:1072660029F066C12AF067C12BF061EC1BF028C03B
:1072760044F029C045F02AC046F02BC047F07CEC0C
:1072860015F0D8B0EDD0CA0E136EF20E146E490E7C
:10729600156E710E166E88C10FF089C110F08AC185
:1072A60011F08BC112F088EC1EF00FC0A4F110C0D3
:1072B600A5F111C0A6F112C0A7F1A4C10FF0A5C196
:1072C60010F0A6C111F0A7C112F0CA0E136EF20E8D
:1072D600146E490E156E710E166E88EC1EF00FC0F8
:1072E600C8F010C0C9F011C0CAF012C0CBF012002D
:1072F600FF0EAC150001D06FFF0E0101AD150001A8
:10730600D16FFF0E0101AE150001D26F7F0E010194
:10731600AF150001D36FD3BF3ED0D005000ED159B3
:10732600160ED259430ED359D8A035D0600E136E1F
:10733600420E146EA20E156E0D0E166E88C10FF05B
:1073460089C110F08AC111F08BC112F088EC1EF0D1
:107356000FC0A4F110C0A5F111C0A6F112C0A7F18B
:10736600A4C10FF0A5C110F0A6C111F0A7C112F07B
:10737600600E136E420E146EA20E156E0D0E166E74
:1073860088EC1EF00FC0C8F010C0C9F011C0CAF0DA
:1073960012C0CBF01200160E0101AE1961E1C30E48
:1073A600AF19AC11AD11D8A45BD09CC13CF09DC106
:1073B6003DF09EC13EF09FC13FF0B4C138F0B5C16B
:1073C60039F0B6C13AF0B7C13BF006EC11F038C05F
:1073D60040F039C041F03AC042F03BC043F064C1CE
:1073E60044F065C145F066C146F067C147F07CECE4
:1073F60015F0D8A035D0600E136E420E146EA20E94
:10740600156E0D0E166E88C10FF089C110F08AC177
:1074160011F08BC112F088EC1EF00FC0A4F110C061
:10742600A5F111C0A6F112C0A7F1A4C10FF0A5C124
:1074360010F0A6C111F0A7C112F0600E136E420E35
:10744600146EA20E156E0D0E166E88EC1EF00FC091
:10745600C8F010C0C9F011C0CAF012C0CBF01200BB
:10746600FF0E0101AC152C6FFF0EAD152D6FFF0E33
:10747600AE152E6F7F0EAF152F6F170E0001D06F52
:107486002CC1D1F02DC1D2F02EC1D3F02FC1D4F032
:10749600D06701D007D0D435D433D333D233D133E8
:1074A600D02FF6D7810E0001D1250101A06FFF0E66
:1074B6000001D2210101A16FFF0E0001D3210101BC
:1074C600A26FFF0E0001D4210101A36F000E7C6F95
:1074D600000E7D6F000E7E6F000E7F6F2FBFFCD0FB
:1074E6002C05000E2D59000E2E593F0E2F59D8A0EF
:1074F600F3D0A0C1D0F0010E0001D027000ED16F4D
:10750600000ED26F800ED36F000ED46FD06701D0FD
:1075160007D0D435D433D333D233D133D02FF6D7A3
:107526000101AC510001D12501017C6FAD51000173
:10753600D22101017D6FAE510001D32101017E6F81
:10754600AF510001D42101017F6F810E0001D06F80
:10755600FF0ED16FFF0ED26FFF0ED36F170ED46FD3
:107566007CC1D5F07DC1D6F07EC1D7F07FC1D8F001
:10757600D46701D007D0D835D833D733D633D533EF
:10758600D42FF6D70001D551D0250101A06F000EEA
:107596000001D1210101A16F000E0001D2210101DC
:1075A600A26F000E0001D3210101A36FA0C1D0F08C
:1075B600FF0E0001D16FFF0ED26F7F0ED36F000E4C
:1075C600D46FD06701D007D0D435D433D333D23378
:1075D600D133D02FF6D70001D11DD56FD21DD66F6E
:1075E600D31DD76FD41DD86F01017C510001D5156D
:1075F6000101B86F7D510001D6150101B96F7E51A9
:107606000001D7150101BA6F7F510001D81501019C
:10761600BB6FB8C1B0F1B9C1B1F1BAC1B2F1BBC16A
:10762600B3F1A05117080001D06FFF0E01017C15C0
:107636000001D16FFF0E01017D150001D26F7F0E93
:1076460001017E150001D36F000E01017F150001B7
:10765600D46F000ED111D56F000ED211D66F800EE9
:10766600D311D76F000ED411D86FD06701D007D0D1
:10767600D835D833D733D633D533D02FF6D7D5C070
:107686007CF1D6C07DF1D7C07EF1D8C07FF1010173
:10769600AFAF08D07F1F7E1F7D1F7C6D000E7D2340
:1076A6007E237F239CC138F09DC139F09EC13AF0FC
:1076B6009FC13BF0B0C13CF0B1C13DF0B2C13EF05C
:1076C600B3C13FF006EC11F038C09CF139C09DF112
:1076D6003AC09EF13BC09FF164C128F065C129F014
:1076E60066C12AF067C12BF09CC12CF09DC12DF01C
:1076F6009EC12EF09FC12FF061EC1BF028C0B0F1A7
:1077060029C0B1F12AC0B2F12BC0B3F1B0C1B8F1B2
:10771600B1C1B9F1B2C1BAF1B3C1BBF1B8C190F10F
:10772600B9C191F1BAC192F1BBC193F1000E010149
:107736009015B86F800E9115B96FFF0E9215BA6F3E
:10774600FF0E9315BB6FB8C1B0F1B9C1B1F1BAC1A3
:10775600B2F1BBC1B3F1B0C10FF0B1C110F0B2C10B
:1077660011F0B3C112F0000E136E720E146E310ECC
:10777600156E3F0E166E88EC1EF00FC074F110C029
:1077860075F111C076F112C077F19CC13CF09DC134
:107796003DF09EC13EF09FC13FF0B0C138F0B1C18F
:1077A60039F0B2C13AF0B3C13BF006EC11F038C083
:1077B60094F139C095F13AC096F13BC097F1180E95
:1077C600136E720E146E310E156E3F0E166E94C148
:1077D6003CF095C13DF096C13EF097C13FF064C1C3
:1077E60038F065C139F066C13AF067C13BF006EC86
:1077F60011F038C00FF039C010F03AC011F03BC09C
:1078060012F088EC1EF00FC014F110C015F111C073
:1078160016F112C017F114C128F015C129F016C1CE
:107826002AF017C12BF08C0E136EBE0E146EBF0E0F
:10783600156E350E166EB0C10FF0B1C110F0B2C1A3
:1078460011F0B3C112F088EC1EF00FC02CF010C07E
:107856002DF011C02EF012C02FF061EC1BF028C0E5
:1078660078F129C079F12AC07AF12BC07BF174C175
:1078760028F075C129F076C12AF077C12BF078C1BE
:107886002CF079C12DF07AC12EF07BC12FF061EC7E
:107896001BF028C0B4F129C0B5F12AC0B6F12BC03F
:1078A600B7F174C13CF075C13DF076C13EF077C1C9
:1078B6003FF0B4C138F0B5C139F0B6C13AF0B7C13E
:1078C6003BF006EC11F038C094F139C095F13AC09E
:1078D60096F13BC097F178C138F079C139F07AC199
:1078E6003AF07BC13BF094C13CF095C13DF096C1A6
:1078F6003EF097C13FF006EC11F038C044F139C0B4
:1079060045F13AC046F13BC047F1B4C10FF0B5C1ED
:1079160010F0B6C111F0B7C112F0B4C113F0B5C181
:1079260014F0B6C115F0B7C116F088EC1EF00FC002
:10793600B0F110C0B1F111C0B2F112C0B3F10E0E28
:107946002C6EEA0E2D6EDD0E2E6EB50E2F6E4C0EC3
:10795600136EBB0E146E310E156E330E166EB0C15D
:107966000FF0B1C110F0B2C111F0B3C112F088EC42
:107976001EF00FC028F010C029F011C02AF012C066
:107986002BF061EC1BF028C0A4F129C0A5F12AC098
:10799600A6F12BC0A7F1550E2C6EB30E2D6E8A0ED6
:1079A6002E6E380E2F6EB0C113F0B1C114F0B2C1F5
:1079B60015F0B3C116F0A4C10FF0A5C110F0A6C111
:1079C60011F0A7C112F088EC1EF00FC028F010C00D
:1079D60029F011C02AF012C02BF061EC1BF028C070
:1079E60054F129C055F12AC056F12BC057F1610E4A
:1079F6002C6E0B0E2D6E360E2E6EBB0E2F6EB0C17C
:107A060013F0B1C114F0B2C115F0B3C116F054C1F0
:107A16000FF055C110F056C111F057C112F088ECA5
:107A26001EF00FC028F010C029F011C02AF012C0B5
:107A36002BF061EC1BF028C048F129C049F12AC09F
:107A46004AF12BC04BF1AB0E2C6EAA0E2D6E2A0EF0
:107A56002E6E3E0E2F6EB0C113F0B1C114F0B2C13E
:107A660015F0B3C116F048C10FF049C110F04AC174
:107A760011F04BC112F088EC1EF00FC028F010C0B8
:107A860029F011C02AF012C02BF061EC1BF028C0BF
:107A960038F129C039F12AC03AF12BC03BF1B4C103
:107AA60038F0B5C139F0B6C13AF0B7C13BF0B0C154
:107AB60013F0B1C114F0B2C115F0B3C116F038C15C
:107AC6000FF039C110F03AC111F03BC112F088EC49
:107AD6001EF00FC03CF010C03DF011C03EF012C0C9
